{
  "contractName": "Lottery",
  "abi": [
    {
      "inputs": [],
      "stateMutability": "nonpayable",
      "type": "constructor"
    },
    {
      "inputs": [],
      "name": "manager",
      "outputs": [
        {
          "internalType": "address",
          "name": "",
          "type": "address"
        }
      ],
      "stateMutability": "view",
      "type": "function",
      "constant": true
    },
    {
      "inputs": [
        {
          "internalType": "uint256",
          "name": "",
          "type": "uint256"
        }
      ],
      "name": "players",
      "outputs": [
        {
          "internalType": "address",
          "name": "",
          "type": "address"
        }
      ],
      "stateMutability": "view",
      "type": "function",
      "constant": true
    },
    {
      "inputs": [],
      "name": "winner",
      "outputs": [
        {
          "internalType": "address",
          "name": "",
          "type": "address"
        }
      ],
      "stateMutability": "view",
      "type": "function",
      "constant": true
    },
    {
      "inputs": [],
      "name": "enter",
      "outputs": [],
      "stateMutability": "payable",
      "type": "function",
      "payable": true
    },
    {
      "inputs": [],
      "name": "pickWinner",
      "outputs": [],
      "stateMutability": "payable",
      "type": "function",
      "payable": true
    },
    {
      "inputs": [],
      "name": "getPlayers",
      "outputs": [
        {
          "internalType": "address[]",
          "name": "",
          "type": "address[]"
        }
      ],
      "stateMutability": "view",
      "type": "function",
      "constant": true
    }
  ],
  "bytecode": "0x608060405234801561001057600080fd5b50336000806101000a81548173ffffffffffffffffffffffffffffffffffffffff021916908373ffffffffffffffffffffffffffffffffffffffff1602179055506105d9806100606000396000f3fe6080604052600436106100555760003560e01c8063481c6a751461005a5780635d495aea1461009b5780638b5b9ccc146100a5578063dfbf53ae14610111578063e97dcb6214610152578063f71d96cb1461015c575b600080fd5b34801561006657600080fd5b5061006f6101c1565b604051808273ffffffffffffffffffffffffffffffffffffffff16815260200191505060405180910390f35b6100a36101e5565b005b3480156100b157600080fd5b506100ba610330565b6040518080602001828103825283818151815260200191508051906020019060200280838360005b838110156100fd5780820151818401526020810190506100e2565b505050509050019250505060405180910390f35b34801561011d57600080fd5b506101266103be565b604051808273ffffffffffffffffffffffffffffffffffffffff16815260200191505060405180910390f35b61015a6103e4565b005b34801561016857600080fd5b506101956004803603602081101561017f57600080fd5b810190808035906020019092919050505061045c565b604051808273ffffffffffffffffffffffffffffffffffffffff16815260200191505060405180910390f35b60008054906101000a900473ffffffffffffffffffffffffffffffffffffffff1681565b60008054906101000a900473ffffffffffffffffffffffffffffffffffffffff1673ffffffffffffffffffffffffffffffffffffffff163373ffffffffffffffffffffffffffffffffffffffff161461023d57600080fd5b600060018054905061024d610498565b8161025457fe5b0690506001818154811061026457fe5b9060005260206000200160009054906101000a900473ffffffffffffffffffffffffffffffffffffffff16600260006101000a81548173ffffffffffffffffffffffffffffffffffffffff021916908373ffffffffffffffffffffffffffffffffffffffff160217905550600067ffffffffffffffff811180156102e757600080fd5b506040519080825280602002602001820160405280156103165781602001602082028036833780820191505090505b506001908051906020019061032c9291906104de565b5050565b606060018054806020026020016040519081016040528092919081815260200182805480156103b457602002820191906000526020600020905b8160009054906101000a900473ffffffffffffffffffffffffffffffffffffffff1673ffffffffffffffffffffffffffffffffffffffff168152602001906001019080831161036a575b5050505050905090565b600260009054906101000a900473ffffffffffffffffffffffffffffffffffffffff1681565b66038d7ea4c6800034116103f757600080fd5b6001339080600181540180825580915050600190039060005260206000200160009091909190916101000a81548173ffffffffffffffffffffffffffffffffffffffff021916908373ffffffffffffffffffffffffffffffffffffffff160217905550565b6001818154811061046957fe5b906000526020600020016000915054906101000a900473ffffffffffffffffffffffffffffffffffffffff1681565b600044426001805490506040516020018084815260200183815260200182815260200193505050506040516020818303038152906040528051906020012060001c905090565b828054828255906000526020600020908101928215610557579160200282015b828111156105565782518260006101000a81548173ffffffffffffffffffffffffffffffffffffffff021916908373ffffffffffffffffffffffffffffffffffffffff160217905550916020019190600101906104fe565b5b5090506105649190610568565b5090565b5b8082111561059f57600081816101000a81549073ffffffffffffffffffffffffffffffffffffffff021916905550600101610569565b509056fea2646970667358221220cc848414394c17d555fdc5979f9066fa2a14aafa6b8b2312118792855595a3ed64736f6c634300060c0033",
  "immutableReferences": {},
  "source": "// SPDX-License-Identifier: MIT\npragma solidity ^0.6.12;\n\ncontract Lottery {\n\n    address public manager;\n    address[] public players;\n    address public winner;\n\n    constructor() public {\n        manager = msg.sender;\n    }\n\n    function enter() public payable {\n        require(msg.value > .001 ether);\n\n        players.push(msg.sender);\n    }\n\n    function random() private view returns(uint){\n        return uint(keccak256(abi.encodePacked(block.difficulty, now, players.length)));\n    }\n\n\n    function pickWinner() public payable restricted {\n        uint index = random() % players.length;\n        winner = players[index];\n        players = new address[](0);\n    }\n\n   \n    function getPlayers() public view returns (address[] memory) {\n        return players;\n    }\n    \n    modifier restricted() {\n        require(msg.sender == manager);\n        _;\n    }\n\n}",
  "sourcePath": "/home/sergio/source/repos/blockchain/react-eth-lottery/contracts/Lottery.sol",
  "compiler": {
    "name": "solc",
    "version": "0.6.12+commit.27d51765.Emscripten.clang"
  },
  "schemaVersion": "3.4.1",
  "updatedAt": "2021-05-31T08:39:32.508Z",
  "networkType": "ethereum",
  "devdoc": {
    "kind": "dev",
    "methods": {},
    "version": 1
  },
  "userdoc": {
    "kind": "user",
    "methods": {},
    "version": 1
  }
}